{
  "contractName": "appointment",
  "abi": [
    {
      "inputs": [],
      "stateMutability": "nonpayable",
      "type": "constructor"
    },
    {
      "inputs": [
        {
          "internalType": "address",
          "name": "",
          "type": "address"
        }
      ],
      "name": "noofappointments",
      "outputs": [
        {
          "internalType": "uint256",
          "name": "",
          "type": "uint256"
        }
      ],
      "stateMutability": "view",
      "type": "function",
      "constant": true
    },
    {
      "inputs": [],
      "name": "owner",
      "outputs": [
        {
          "internalType": "address",
          "name": "",
          "type": "address"
        }
      ],
      "stateMutability": "view",
      "type": "function",
      "constant": true
    },
    {
      "inputs": [],
      "name": "appointleft",
      "outputs": [
        {
          "internalType": "uint256",
          "name": "",
          "type": "uint256"
        }
      ],
      "stateMutability": "view",
      "type": "function",
      "constant": true
    },
    {
      "inputs": [
        {
          "internalType": "uint256",
          "name": "noofdone",
          "type": "uint256"
        }
      ],
      "name": "appointdone",
      "outputs": [],
      "stateMutability": "nonpayable",
      "type": "function"
    },
    {
      "inputs": [
        {
          "internalType": "uint256",
          "name": "noofappoint",
          "type": "uint256"
        }
      ],
      "name": "appointbook",
      "outputs": [],
      "stateMutability": "payable",
      "type": "function",
      "payable": true
    }
  ],
  "bytecode": "0x608060405234801561001057600080fd5b50336000806101000a81548173ffffffffffffffffffffffffffffffffffffffff021916908373ffffffffffffffffffffffffffffffffffffffff160217905550601e600160003073ffffffffffffffffffffffffffffffffffffffff1673ffffffffffffffffffffffffffffffffffffffff16815260200190815260200160002081905550610781806100a56000396000f3fe60806040526004361061004a5760003560e01c806314e13a7a1461004f5780634ae45d9b1461007857806365ed2d8f146100b55780638da5cb5b146100e0578063e1cfcc501461010b575b600080fd5b34801561005b57600080fd5b506100766004803603810190610071919061041d565b610127565b005b34801561008457600080fd5b5061009f600480360381019061009a91906104a8565b61020e565b6040516100ac91906104e4565b60405180910390f35b3480156100c157600080fd5b506100ca610226565b6040516100d791906104e4565b60405180910390f35b3480156100ec57600080fd5b506100f561026d565b604051610102919061050e565b60405180910390f35b6101256004803603810190610120919061041d565b610291565b005b60008054906101000a900473ffffffffffffffffffffffffffffffffffffffff1673ffffffffffffffffffffffffffffffffffffffff163373ffffffffffffffffffffffffffffffffffffffff16146101b5576040517f08c379a00000000000000000000000000000000000000000000000000000000081526004016101ac90610586565b60405180910390fd5b80600160003073ffffffffffffffffffffffffffffffffffffffff1673ffffffffffffffffffffffffffffffffffffffff168152602001908152602001600020600082825461020491906105d5565b9250508190555050565b60016020528060005260406000206000915090505481565b6000600160003073ffffffffffffffffffffffffffffffffffffffff1673ffffffffffffffffffffffffffffffffffffffff16815260200190815260200160002054905090565b60008054906101000a900473ffffffffffffffffffffffffffffffffffffffff1681565b670de0b6b3a7640000816102a5919061062b565b3410156102e7576040517f08c379a00000000000000000000000000000000000000000000000000000000081526004016102de906106f7565b60405180910390fd5b80600160003073ffffffffffffffffffffffffffffffffffffffff1673ffffffffffffffffffffffffffffffffffffffff16815260200190815260200160002054101561033357600080fd5b80600160003073ffffffffffffffffffffffffffffffffffffffff1673ffffffffffffffffffffffffffffffffffffffff16815260200190815260200160002060008282546103829190610717565b9250508190555080600160003373ffffffffffffffffffffffffffffffffffffffff1673ffffffffffffffffffffffffffffffffffffffff16815260200190815260200160002060008282546103d891906105d5565b9250508190555050565b600080fd5b6000819050919050565b6103fa816103e7565b811461040557600080fd5b50565b600081359050610417816103f1565b92915050565b600060208284031215610433576104326103e2565b5b600061044184828501610408565b91505092915050565b600073ffffffffffffffffffffffffffffffffffffffff82169050919050565b60006104758261044a565b9050919050565b6104858161046a565b811461049057600080fd5b50565b6000813590506104a28161047c565b92915050565b6000602082840312156104be576104bd6103e2565b5b60006104cc84828501610493565b91505092915050565b6104de816103e7565b82525050565b60006020820190506104f960008301846104d5565b92915050565b6105088161046a565b82525050565b600060208201905061052360008301846104ff565b92915050565b600082825260208201905092915050565b7f4f6e6c7920446f63746f72732063616e20616464207468697320696e666f0000600082015250565b6000610570601e83610529565b915061057b8261053a565b602082019050919050565b6000602082019050818103600083015261059f81610563565b9050919050565b7f4e487b7100000000000000000000000000000000000000000000000000000000600052601160045260246000fd5b60006105e0826103e7565b91506105eb836103e7565b9250827fffffffffffffffffffffffffffffffffffffffffffffffffffffffffffffffff038211156106205761061f6105a6565b5b828201905092915050565b6000610636826103e7565b9150610641836103e7565b9250817fffffffffffffffffffffffffffffffffffffffffffffffffffffffffffffffff048311821515161561067a576106796105a6565b5b828202905092915050565b7f596f75206d75737420706179203120657468657220666f72206561636820617060008201527f706f696e746d656e740000000000000000000000000000000000000000000000602082015250565b60006106e1602983610529565b91506106ec82610685565b604082019050919050565b60006020820190508181036000830152610710816106d4565b9050919050565b6000610722826103e7565b915061072d836103e7565b9250828210156107405761073f6105a6565b5b82820390509291505056fea2646970667358221220e0f9c15dab00f67e95b1ef87c12b34d617a2422ea8d0094c1433dc1ea1dc27af64736f6c634300080a0033",
  "immutableReferences": {},
  "source": "// SPDX-License-Identifier: MIT\npragma solidity >=0.4.22 <0.9.0;\n\ncontract appointment{\n    address public owner;\n    mapping(address => uint) public noofappointments;\n\n    constructor() {\n        owner = msg.sender;\n        noofappointments[address(this)] = 30;\n    }\n\n    function appointleft() public view returns (uint) {\n        return noofappointments[address(this)];\n    }\n\n    function appointdone(uint noofdone) public{\n        require(msg.sender == owner, \"Only Doctors can add this info\");\n        noofappointments[address(this)] += noofdone;\n    }\n\n    function appointbook(uint noofappoint) public payable{\n        require(msg.value >= noofappoint*1 ether, \"You must pay 1 ether for each appointment\");\n        require(noofappointments[address(this)] >= noofappoint);\n        noofappointments[address(this)] -= noofappoint;\n        noofappointments[msg.sender] += noofappoint;\n    }\n}",
  "sourcePath": "/Users/om/Desktop/Hackathon/contracts/Appointment.sol",
  "compiler": {
    "name": "solc",
    "version": "0.8.10+commit.fc410830.Emscripten.clang"
  },
  "schemaVersion": "3.4.4",
  "updatedAt": "2022-01-08T12:15:40.435Z",
  "networkType": "ethereum",
  "devdoc": {
    "kind": "dev",
    "methods": {},
    "version": 1
  },
  "userdoc": {
    "kind": "user",
    "methods": {},
    "version": 1
  }
}