{
  "contractName": "MedicalManagmtSys",
  "abi": [
    {
      "inputs": [],
      "stateMutability": "nonpayable",
      "type": "constructor"
    },
    {
      "inputs": [],
      "name": "mdcCount",
      "outputs": [
        {
          "internalType": "int256",
          "name": "",
          "type": "int256"
        }
      ],
      "stateMutability": "view",
      "type": "function",
      "constant": true
    },
    {
      "inputs": [
        {
          "internalType": "int256",
          "name": "",
          "type": "int256"
        }
      ],
      "name": "mdcRecords",
      "outputs": [
        {
          "internalType": "int256",
          "name": "ID",
          "type": "int256"
        },
        {
          "internalType": "string",
          "name": "Name",
          "type": "string"
        },
        {
          "internalType": "string",
          "name": "Problem",
          "type": "string"
        },
        {
          "internalType": "int256",
          "name": "Fees",
          "type": "int256"
        }
      ],
      "stateMutability": "view",
      "type": "function",
      "constant": true
    },
    {
      "inputs": [
        {
          "internalType": "int256",
          "name": "_ID",
          "type": "int256"
        },
        {
          "internalType": "string",
          "name": "_Name",
          "type": "string"
        },
        {
          "internalType": "string",
          "name": "_Problem",
          "type": "string"
        },
        {
          "internalType": "int256",
          "name": "_Fees",
          "type": "int256"
        }
      ],
      "name": "addNewRecords",
      "outputs": [],
      "stateMutability": "nonpayable",
      "type": "function"
    },
    {
      "inputs": [
        {
          "internalType": "int256",
          "name": "_bonus",
          "type": "int256"
        }
      ],
      "name": "bonusFees",
      "outputs": [],
      "stateMutability": "nonpayable",
      "type": "function"
    }
  ],
  "bytecode": "0x6080604052600060015534801561001557600080fd5b50336000806101000a81548173ffffffffffffffffffffffffffffffffffffffff021916908373ffffffffffffffffffffffffffffffffffffffff160217905550610912806100656000396000f3fe608060405234801561001057600080fd5b506004361061004c5760003560e01c8063383b325b146100515780639e676bcf1461006f578063a4675b8c1461008b578063be165c69146100a7575b600080fd5b6100596100da565b6040516100669190610470565b60405180910390f35b61008960048036038101906100849190610611565b6100e0565b005b6100a560048036038101906100a091906106b0565b6101d9565b005b6100c160048036038101906100bc91906106b0565b610274565b6040516100d19493929190610765565b60405180910390f35b60015481565b3373ffffffffffffffffffffffffffffffffffffffff1660008054906101000a900473ffffffffffffffffffffffffffffffffffffffff1673ffffffffffffffffffffffffffffffffffffffff161461013857600080fd5b6001805461014691906107e7565b6001819055506040518060800160405280858152602001848152602001838152602001828152506002600060015481526020019081526020016000206000820151816000015560208201518160010190805190602001906101a89291906103b4565b5060408201518160020190805190602001906101c59291906103b4565b506060820151816003015590505050505050565b3373ffffffffffffffffffffffffffffffffffffffff1660008054906101000a900473ffffffffffffffffffffffffffffffffffffffff1673ffffffffffffffffffffffffffffffffffffffff161461023157600080fd5b806002600060015481526020019081526020016000206003015461025591906107e7565b6002600060015481526020019081526020016000206003018190555050565b600260205280600052604060002060009150905080600001549080600101805461029d906108aa565b80601f01602080910402602001604051908101604052809291908181526020018280546102c9906108aa565b80156103165780601f106102eb57610100808354040283529160200191610316565b820191906000526020600020905b8154815290600101906020018083116102f957829003601f168201915b50505050509080600201805461032b906108aa565b80601f0160208091040260200160405190810160405280929190818152602001828054610357906108aa565b80156103a45780601f10610379576101008083540402835291602001916103a4565b820191906000526020600020905b81548152906001019060200180831161038757829003601f168201915b5050505050908060030154905084565b8280546103c0906108aa565b90600052602060002090601f0160209004810192826103e25760008555610429565b82601f106103fb57805160ff1916838001178555610429565b82800160010185558215610429579182015b8281111561042857825182559160200191906001019061040d565b5b509050610436919061043a565b5090565b5b8082111561045357600081600090555060010161043b565b5090565b6000819050919050565b61046a81610457565b82525050565b60006020820190506104856000830184610461565b92915050565b6000604051905090565b600080fd5b600080fd5b6104a881610457565b81146104b357600080fd5b50565b6000813590506104c58161049f565b92915050565b600080fd5b600080fd5b6000601f19601f8301169050919050565b7f4e487b7100000000000000000000000000000000000000000000000000000000600052604160045260246000fd5b61051e826104d5565b810181811067ffffffffffffffff8211171561053d5761053c6104e6565b5b80604052505050565b600061055061048b565b905061055c8282610515565b919050565b600067ffffffffffffffff82111561057c5761057b6104e6565b5b610585826104d5565b9050602081019050919050565b82818337600083830152505050565b60006105b46105af84610561565b610546565b9050828152602081018484840111156105d0576105cf6104d0565b5b6105db848285610592565b509392505050565b600082601f8301126105f8576105f76104cb565b5b81356106088482602086016105a1565b91505092915050565b6000806000806080858703121561062b5761062a610495565b5b6000610639878288016104b6565b945050602085013567ffffffffffffffff81111561065a5761065961049a565b5b610666878288016105e3565b935050604085013567ffffffffffffffff8111156106875761068661049a565b5b610693878288016105e3565b92505060606106a4878288016104b6565b91505092959194509250565b6000602082840312156106c6576106c5610495565b5b60006106d4848285016104b6565b91505092915050565b600081519050919050565b600082825260208201905092915050565b60005b838110156107175780820151818401526020810190506106fc565b83811115610726576000848401525b50505050565b6000610737826106dd565b61074181856106e8565b93506107518185602086016106f9565b61075a816104d5565b840191505092915050565b600060808201905061077a6000830187610461565b818103602083015261078c818661072c565b905081810360408301526107a0818561072c565b90506107af6060830184610461565b95945050505050565b7f4e487b7100000000000000000000000000000000000000000000000000000000600052601160045260246000fd5b60006107f282610457565b91506107fd83610457565b9250817f7fffffffffffffffffffffffffffffffffffffffffffffffffffffffffffffff03831360008312151615610838576108376107b8565b5b817f80000000000000000000000000000000000000000000000000000000000000000383126000831216156108705761086f6107b8565b5b828201905092915050565b7f4e487b7100000000000000000000000000000000000000000000000000000000600052602260045260246000fd5b600060028204905060018216806108c257607f821691505b602082108114156108d6576108d561087b565b5b5091905056fea26469706673582212201154d37d8a929a4c298d46b838113d444f9cfbfe61e1513e3fdd87c0e1dd8f2f64736f6c634300080a0033",
  "immutableReferences": {},
  "source": "// SPDX-License-Identifier: MIT\r\npragma solidity >=0.4.22 <0.9.0;\r\n  \r\n\r\ncontract MedicalManagmtSys{\r\n    struct Medical\r\n    {\r\n        int ID;\r\n        string Name;\r\n        string Problem;\r\n        int Fees;\r\n    }\r\n  \r\n    address owner;\r\n    int public mdcCount = 0;\r\n    mapping(int => Medical) public mdcRecords;\r\n  \r\n    modifier onlyOwner\r\n    {\r\n        require(owner == msg.sender);\r\n        _;\r\n    }\r\n    constructor()\r\n    {\r\n        owner=msg.sender;\r\n    }\r\n  \r\n    function addNewRecords(int _ID, \r\n                           string memory _Name,\r\n                           string memory _Problem,\r\n                           int _Fees) public onlyOwner\r\n    {\r\n        // Increase the count by 1\r\n        mdcCount = mdcCount + 1;\r\n  \r\n        \r\n        mdcRecords[mdcCount] = Medical(_ID, _Name, \r\n                                       _Problem, _Fees);\r\n    }\r\n  \r\n    // Create a function to add bonus Fees \r\n    function bonusFees(int _bonus) public onlyOwner\r\n    {\r\n         mdcRecords[mdcCount].Fees = \r\n                    mdcRecords[mdcCount].Fees + _bonus;\r\n    }\r\n}",
  "sourcePath": "/Users/om/Desktop/Hackathon/contracts/records.sol",
  "compiler": {
    "name": "solc",
    "version": "0.8.10+commit.fc410830.Emscripten.clang"
  },
  "schemaVersion": "3.4.4",
  "updatedAt": "2022-01-08T12:16:00.138Z",
  "networkType": "ethereum",
  "devdoc": {
    "kind": "dev",
    "methods": {},
    "version": 1
  },
  "userdoc": {
    "kind": "user",
    "methods": {},
    "version": 1
  }
}