{
  "contractName": "Medicine",
  "abi": [
    {
      "inputs": [],
      "stateMutability": "nonpayable",
      "type": "constructor"
    },
    {
      "inputs": [],
      "name": "stdCount",
      "outputs": [
        {
          "internalType": "int256",
          "name": "",
          "type": "int256"
        }
      ],
      "stateMutability": "view",
      "type": "function",
      "constant": true
    },
    {
      "inputs": [
        {
          "internalType": "int256",
          "name": "",
          "type": "int256"
        }
      ],
      "name": "stdRecords",
      "outputs": [
        {
          "internalType": "int256",
          "name": "ID",
          "type": "int256"
        },
        {
          "internalType": "string",
          "name": "contactno",
          "type": "string"
        },
        {
          "internalType": "string",
          "name": "Name",
          "type": "string"
        },
        {
          "internalType": "string",
          "name": "MedicineName",
          "type": "string"
        },
        {
          "internalType": "string",
          "name": "Reference",
          "type": "string"
        },
        {
          "internalType": "string",
          "name": "Date",
          "type": "string"
        },
        {
          "internalType": "int256",
          "name": "Quantity",
          "type": "int256"
        },
        {
          "internalType": "int256",
          "name": "Total",
          "type": "int256"
        }
      ],
      "stateMutability": "view",
      "type": "function",
      "constant": true
    },
    {
      "inputs": [
        {
          "internalType": "int256",
          "name": "_ID",
          "type": "int256"
        },
        {
          "internalType": "string",
          "name": "_Name",
          "type": "string"
        },
        {
          "internalType": "string",
          "name": "_contactno",
          "type": "string"
        },
        {
          "internalType": "string",
          "name": "_Reference",
          "type": "string"
        },
        {
          "internalType": "string",
          "name": "_MedicineName",
          "type": "string"
        },
        {
          "internalType": "string",
          "name": "_Date",
          "type": "string"
        },
        {
          "internalType": "int256",
          "name": "_Quantity",
          "type": "int256"
        },
        {
          "internalType": "int256",
          "name": "_Total",
          "type": "int256"
        }
      ],
      "name": "addNewRecords",
      "outputs": [],
      "stateMutability": "nonpayable",
      "type": "function"
    }
  ],
  "bytecode": "0x6080604052600060015534801561001557600080fd5b50336000806101000a81548173ffffffffffffffffffffffffffffffffffffffff021916908373ffffffffffffffffffffffffffffffffffffffff160217905550610b73806100656000396000f3fe608060405234801561001057600080fd5b50600436106100415760003560e01c80632e90ed0314610046578063cd9f839814610062578063fe615f2a14610099575b600080fd5b610060600480360381019061005b9190610757565b6100b7565b005b61007c60048036038101906100779190610899565b61022e565b60405161009098979695949392919061095d565b60405180910390f35b6100a161051e565b6040516100ae91906109fe565b60405180910390f35b3373ffffffffffffffffffffffffffffffffffffffff1660008054906101000a900473ffffffffffffffffffffffffffffffffffffffff1673ffffffffffffffffffffffffffffffffffffffff161461010f57600080fd5b6001805461011d9190610a48565b60018190555060405180610100016040528089815260200188815260200187815260200186815260200185815260200184815260200183815260200182815250600260006001548152602001908152602001600020600082015181600001556020820151816001019080519060200190610198929190610524565b5060408201518160020190805190602001906101b5929190610524565b5060608201518160030190805190602001906101d2929190610524565b5060808201518160040190805190602001906101ef929190610524565b5060a082015181600501908051906020019061020c929190610524565b5060c0820151816006015560e082015181600701559050505050505050505050565b600260205280600052604060002060009150905080600001549080600101805461025790610b0b565b80601f016020809104026020016040519081016040528092919081815260200182805461028390610b0b565b80156102d05780601f106102a5576101008083540402835291602001916102d0565b820191906000526020600020905b8154815290600101906020018083116102b357829003601f168201915b5050505050908060020180546102e590610b0b565b80601f016020809104026020016040519081016040528092919081815260200182805461031190610b0b565b801561035e5780601f106103335761010080835404028352916020019161035e565b820191906000526020600020905b81548152906001019060200180831161034157829003601f168201915b50505050509080600301805461037390610b0b565b80601f016020809104026020016040519081016040528092919081815260200182805461039f90610b0b565b80156103ec5780601f106103c1576101008083540402835291602001916103ec565b820191906000526020600020905b8154815290600101906020018083116103cf57829003601f168201915b50505050509080600401805461040190610b0b565b80601f016020809104026020016040519081016040528092919081815260200182805461042d90610b0b565b801561047a5780601f1061044f5761010080835404028352916020019161047a565b820191906000526020600020905b81548152906001019060200180831161045d57829003601f168201915b50505050509080600501805461048f90610b0b565b80601f01602080910402602001604051908101604052809291908181526020018280546104bb90610b0b565b80156105085780601f106104dd57610100808354040283529160200191610508565b820191906000526020600020905b8154815290600101906020018083116104eb57829003601f168201915b5050505050908060060154908060070154905088565b60015481565b82805461053090610b0b565b90600052602060002090601f0160209004810192826105525760008555610599565b82601f1061056b57805160ff1916838001178555610599565b82800160010185558215610599579182015b8281111561059857825182559160200191906001019061057d565b5b5090506105a691906105aa565b5090565b5b808211156105c35760008160009055506001016105ab565b5090565b6000604051905090565b600080fd5b600080fd5b6000819050919050565b6105ee816105db565b81146105f957600080fd5b50565b60008135905061060b816105e5565b92915050565b600080fd5b600080fd5b6000601f19601f8301169050919050565b7f4e487b7100000000000000000000000000000000000000000000000000000000600052604160045260246000fd5b6106648261061b565b810181811067ffffffffffffffff821117156106835761068261062c565b5b80604052505050565b60006106966105c7565b90506106a2828261065b565b919050565b600067ffffffffffffffff8211156106c2576106c161062c565b5b6106cb8261061b565b9050602081019050919050565b82818337600083830152505050565b60006106fa6106f5846106a7565b61068c565b90508281526020810184848401111561071657610715610616565b5b6107218482856106d8565b509392505050565b600082601f83011261073e5761073d610611565b5b813561074e8482602086016106e7565b91505092915050565b600080600080600080600080610100898b031215610778576107776105d1565b5b60006107868b828c016105fc565b985050602089013567ffffffffffffffff8111156107a7576107a66105d6565b5b6107b38b828c01610729565b975050604089013567ffffffffffffffff8111156107d4576107d36105d6565b5b6107e08b828c01610729565b965050606089013567ffffffffffffffff811115610801576108006105d6565b5b61080d8b828c01610729565b955050608089013567ffffffffffffffff81111561082e5761082d6105d6565b5b61083a8b828c01610729565b94505060a089013567ffffffffffffffff81111561085b5761085a6105d6565b5b6108678b828c01610729565b93505060c06108788b828c016105fc565b92505060e06108898b828c016105fc565b9150509295985092959890939650565b6000602082840312156108af576108ae6105d1565b5b60006108bd848285016105fc565b91505092915050565b6108cf816105db565b82525050565b600081519050919050565b600082825260208201905092915050565b60005b8381101561090f5780820151818401526020810190506108f4565b8381111561091e576000848401525b50505050565b600061092f826108d5565b61093981856108e0565b93506109498185602086016108f1565b6109528161061b565b840191505092915050565b600061010082019050610973600083018b6108c6565b8181036020830152610985818a610924565b905081810360408301526109998189610924565b905081810360608301526109ad8188610924565b905081810360808301526109c18187610924565b905081810360a08301526109d58186610924565b90506109e460c08301856108c6565b6109f160e08301846108c6565b9998505050505050505050565b6000602082019050610a1360008301846108c6565b92915050565b7f4e487b7100000000000000000000000000000000000000000000000000000000600052601160045260246000fd5b6000610a53826105db565b9150610a5e836105db565b9250817f7fffffffffffffffffffffffffffffffffffffffffffffffffffffffffffffff03831360008312151615610a9957610a98610a19565b5b817f8000000000000000000000000000000000000000000000000000000000000000038312600083121615610ad157610ad0610a19565b5b828201905092915050565b7f4e487b7100000000000000000000000000000000000000000000000000000000600052602260045260246000fd5b60006002820490506001821680610b2357607f821691505b60208210811415610b3757610b36610adc565b5b5091905056fea2646970667358221220480e1b8ae5e011834a62731845e34d70163e485c73166317f1578c6fb27245a564736f6c634300080a0033",
  "immutableReferences": {},
  "source": "// SPDX-License-Identifier: MIT\r\npragma solidity >=0.4.22 <0.9.0;\r\n  \r\n\r\ncontract Medicine{\r\n    struct Patient\r\n    {\r\n        int ID;\r\n        string contactno;\r\n        string Name;\r\n        string MedicineName;\r\n        string Reference;\r\n        string Date;\r\n        int Quantity;\r\n        int Total;\r\n    }\r\n  \r\n    address owner;\r\n    int public stdCount = 0;\r\n    mapping(int => Patient) public stdRecords;\r\n  \r\n    modifier onlyOwner\r\n    {\r\n        require(owner == msg.sender);\r\n        _;\r\n    }\r\n    constructor()\r\n    {\r\n        owner=msg.sender;\r\n    }\r\n  \r\n    // Create a function to add \r\n    // the new records\r\n    function addNewRecords(int _ID, \r\n                           string memory _Name,\r\n                           string memory _contactno,\r\n                           string memory _Reference,\r\n                           string memory _MedicineName,\r\n                           string memory _Date,\r\n                           int _Quantity,\r\n                           int _Total) public onlyOwner\r\n    {\r\n        // Increase the count by 1\r\n        stdCount = stdCount + 1;\r\n  \r\n        // Fetch the student details \r\n        // with the help of stdCount\r\n        stdRecords[stdCount] = Patient(_ID, _Name, _contactno, _Reference, _MedicineName, _Date, _Quantity, _Total);\r\n    }\r\n}",
  "sourcePath": "/Users/om/Desktop/Hackathon/contracts/medicine.sol",
  "compiler": {
    "name": "solc",
    "version": "0.8.10+commit.fc410830.Emscripten.clang"
  },
  "schemaVersion": "3.4.4",
  "updatedAt": "2022-01-08T12:16:15.842Z",
  "networkType": "ethereum",
  "devdoc": {
    "kind": "dev",
    "methods": {},
    "version": 1
  },
  "userdoc": {
    "kind": "user",
    "methods": {},
    "version": 1
  }
}