{
  "contractName": "MedStore",
  "abi": [
    {
      "inputs": [
        {
          "internalType": "address",
          "name": "",
          "type": "address"
        },
        {
          "internalType": "uint256",
          "name": "",
          "type": "uint256"
        }
      ],
      "name": "batchIdOfMedicine",
      "outputs": [
        {
          "internalType": "string",
          "name": "",
          "type": "string"
        }
      ],
      "stateMutability": "view",
      "type": "function",
      "constant": true
    },
    {
      "inputs": [
        {
          "internalType": "address",
          "name": "",
          "type": "address"
        }
      ],
      "name": "medicalStores",
      "outputs": [
        {
          "internalType": "address",
          "name": "owner",
          "type": "address"
        },
        {
          "internalType": "string",
          "name": "ownerName",
          "type": "string"
        },
        {
          "internalType": "string",
          "name": "storeName",
          "type": "string"
        },
        {
          "internalType": "string",
          "name": "pno",
          "type": "string"
        },
        {
          "internalType": "string",
          "name": "ownerAddress",
          "type": "string"
        },
        {
          "internalType": "uint256",
          "name": "invoices",
          "type": "uint256"
        },
        {
          "internalType": "uint256",
          "name": "purchases",
          "type": "uint256"
        },
        {
          "internalType": "bool",
          "name": "exists",
          "type": "bool"
        }
      ],
      "stateMutability": "view",
      "type": "function",
      "constant": true
    },
    {
      "inputs": [],
      "name": "medicalStoresCount",
      "outputs": [
        {
          "internalType": "uint256",
          "name": "",
          "type": "uint256"
        }
      ],
      "stateMutability": "view",
      "type": "function",
      "constant": true
    },
    {
      "inputs": [
        {
          "internalType": "address",
          "name": "",
          "type": "address"
        }
      ],
      "name": "medicineCountInMedicalStore",
      "outputs": [
        {
          "internalType": "uint256",
          "name": "",
          "type": "uint256"
        }
      ],
      "stateMutability": "view",
      "type": "function",
      "constant": true
    },
    {
      "inputs": [
        {
          "internalType": "address",
          "name": "",
          "type": "address"
        },
        {
          "internalType": "string",
          "name": "",
          "type": "string"
        }
      ],
      "name": "medicines",
      "outputs": [
        {
          "internalType": "string",
          "name": "name",
          "type": "string"
        },
        {
          "internalType": "uint256",
          "name": "rate",
          "type": "uint256"
        },
        {
          "internalType": "uint256",
          "name": "price",
          "type": "uint256"
        },
        {
          "internalType": "uint256",
          "name": "quantity",
          "type": "uint256"
        },
        {
          "internalType": "string",
          "name": "bno",
          "type": "string"
        },
        {
          "internalType": "string",
          "name": "manufactDate",
          "type": "string"
        },
        {
          "internalType": "string",
          "name": "expiryDate",
          "type": "string"
        },
        {
          "internalType": "bool",
          "name": "exists",
          "type": "bool"
        }
      ],
      "stateMutability": "view",
      "type": "function",
      "constant": true
    },
    {
      "inputs": [
        {
          "internalType": "address",
          "name": "",
          "type": "address"
        },
        {
          "internalType": "uint256",
          "name": "",
          "type": "uint256"
        }
      ],
      "name": "myBills",
      "outputs": [
        {
          "internalType": "string",
          "name": "",
          "type": "string"
        }
      ],
      "stateMutability": "view",
      "type": "function",
      "constant": true
    },
    {
      "inputs": [
        {
          "internalType": "address",
          "name": "",
          "type": "address"
        }
      ],
      "name": "myBillsCount",
      "outputs": [
        {
          "internalType": "uint256",
          "name": "",
          "type": "uint256"
        }
      ],
      "stateMutability": "view",
      "type": "function",
      "constant": true
    },
    {
      "inputs": [
        {
          "internalType": "address",
          "name": "",
          "type": "address"
        },
        {
          "internalType": "uint256",
          "name": "",
          "type": "uint256"
        }
      ],
      "name": "myInvoices",
      "outputs": [
        {
          "internalType": "string",
          "name": "",
          "type": "string"
        }
      ],
      "stateMutability": "view",
      "type": "function",
      "constant": true
    },
    {
      "inputs": [
        {
          "internalType": "address",
          "name": "",
          "type": "address"
        }
      ],
      "name": "myInvoicesCount",
      "outputs": [
        {
          "internalType": "uint256",
          "name": "",
          "type": "uint256"
        }
      ],
      "stateMutability": "view",
      "type": "function",
      "constant": true
    },
    {
      "inputs": [
        {
          "internalType": "address",
          "name": "",
          "type": "address"
        }
      ],
      "name": "myMedicalStores",
      "outputs": [
        {
          "internalType": "address",
          "name": "owner",
          "type": "address"
        },
        {
          "internalType": "string",
          "name": "ownerName",
          "type": "string"
        },
        {
          "internalType": "string",
          "name": "storeName",
          "type": "string"
        },
        {
          "internalType": "string",
          "name": "pno",
          "type": "string"
        },
        {
          "internalType": "string",
          "name": "ownerAddress",
          "type": "string"
        },
        {
          "internalType": "uint256",
          "name": "invoices",
          "type": "uint256"
        },
        {
          "internalType": "uint256",
          "name": "purchases",
          "type": "uint256"
        },
        {
          "internalType": "bool",
          "name": "exists",
          "type": "bool"
        }
      ],
      "stateMutability": "view",
      "type": "function",
      "constant": true
    },
    {
      "inputs": [
        {
          "internalType": "address",
          "name": "",
          "type": "address"
        },
        {
          "internalType": "uint256",
          "name": "",
          "type": "uint256"
        }
      ],
      "name": "myMedicines",
      "outputs": [
        {
          "internalType": "string",
          "name": "name",
          "type": "string"
        },
        {
          "internalType": "uint256",
          "name": "rate",
          "type": "uint256"
        },
        {
          "internalType": "uint256",
          "name": "price",
          "type": "uint256"
        },
        {
          "internalType": "uint256",
          "name": "quantity",
          "type": "uint256"
        },
        {
          "internalType": "string",
          "name": "bno",
          "type": "string"
        },
        {
          "internalType": "string",
          "name": "manufactDate",
          "type": "string"
        },
        {
          "internalType": "string",
          "name": "expiryDate",
          "type": "string"
        },
        {
          "internalType": "bool",
          "name": "exists",
          "type": "bool"
        }
      ],
      "stateMutability": "view",
      "type": "function",
      "constant": true
    },
    {
      "inputs": [
        {
          "internalType": "string",
          "name": "_ownerName",
          "type": "string"
        },
        {
          "internalType": "string",
          "name": "_medicalStoreName",
          "type": "string"
        },
        {
          "internalType": "string",
          "name": "_pno",
          "type": "string"
        },
        {
          "internalType": "string",
          "name": "_ownerAddress",
          "type": "string"
        }
      ],
      "name": "addMedicalStore",
      "outputs": [],
      "stateMutability": "nonpayable",
      "type": "function"
    },
    {
      "inputs": [
        {
          "internalType": "string",
          "name": "_medicineName",
          "type": "string"
        },
        {
          "internalType": "uint256",
          "name": "_rate",
          "type": "uint256"
        },
        {
          "internalType": "uint256",
          "name": "_price",
          "type": "uint256"
        },
        {
          "internalType": "uint256",
          "name": "_quantity",
          "type": "uint256"
        },
        {
          "internalType": "string",
          "name": "_bno",
          "type": "string"
        },
        {
          "internalType": "string",
          "name": "_manufactDate",
          "type": "string"
        },
        {
          "internalType": "string",
          "name": "_expiryDate",
          "type": "string"
        }
      ],
      "name": "addMedicine",
      "outputs": [],
      "stateMutability": "nonpayable",
      "type": "function"
    },
    {
      "inputs": [
        {
          "internalType": "uint256",
          "name": "_quantity",
          "type": "uint256"
        },
        {
          "internalType": "string",
          "name": "_bno",
          "type": "string"
        }
      ],
      "name": "purchaseMedicine",
      "outputs": [],
      "stateMutability": "nonpayable",
      "type": "function"
    },
    {
      "inputs": [
        {
          "internalType": "string",
          "name": "_billHash",
          "type": "string"
        }
      ],
      "name": "addBills",
      "outputs": [],
      "stateMutability": "nonpayable",
      "type": "function"
    },
    {
      "inputs": [
        {
          "internalType": "string",
          "name": "_invoiceHash",
          "type": "string"
        }
      ],
      "name": "addInvoices",
      "outputs": [],
      "stateMutability": "nonpayable",
      "type": "function"
    },
    {
      "inputs": [],
      "name": "medicineCount",
      "outputs": [
        {
          "internalType": "uint256",
          "name": "",
          "type": "uint256"
        }
      ],
      "stateMutability": "view",
      "type": "function",
      "constant": true
    },
    {
      "inputs": [],
      "name": "invoicesCount",
      "outputs": [
        {
          "internalType": "uint256",
          "name": "",
          "type": "uint256"
        }
      ],
      "stateMutability": "view",
      "type": "function",
      "constant": true
    },
    {
      "inputs": [],
      "name": "purchasesCount",
      "outputs": [
        {
          "internalType": "uint256",
          "name": "",
          "type": "uint256"
        }
      ],
      "stateMutability": "view",
      "type": "function",
      "constant": true
    }
  ],
  "bytecode": "0x608060405234801561001057600080fd5b5061295e806100206000396000f3fe608060405234801561001057600080fd5b50600436106101205760003560e01c8063625a8e91116100ad578063b52189a411610071578063b52189a414610354578063bac1ff8f14610384578063c3dbfbfc146103b4578063d352cb99146103d2578063d6397311146103ee57610120565b8063625a8e9114610283578063695b331d146102a15780636c2cd063146102d85780638e5729d9146102f45780639258b1871461032457610120565b8063462e1764116100f4578063462e1764146101df5780634706016a1461020f5780634dafd4901461022b5780634e2d41db14610249578063509040811461026557610120565b80626e9e68146101255780630b6594601461014157806328adb13a146101785780633fcec935146101a8575b600080fd5b61013f600480360381019061013a919061201b565b610425565b005b61015b60048036038101906101569190612150565b6107e5565b60405161016f989796959493929190612248565b60405180910390f35b610192600480360381019061018d919061230e565b610a7a565b60405161019f919061234e565b60405180910390f35b6101c260048036038101906101bd9190612370565b610b27565b6040516101d69897969594939291906123cc565b60405180910390f35b6101f960048036038101906101f4919061230e565b610dbf565b604051610206919061234e565b60405180910390f35b61022960048036038101906102249190612466565b610e6c565b005b610233610f68565b60405161024091906124af565b60405180910390f35b610263600480360381019061025e91906124ca565b610faf565b005b61026d611471565b60405161027a91906124af565b60405180910390f35b61028b6114bb565b60405161029891906124af565b60405180910390f35b6102bb60048036038101906102b6919061230e565b6114c1565b6040516102cf9897969594939291906123cc565b60405180910390f35b6102f260048036038101906102ed91906125dc565b611743565b005b61030e60048036038101906103099190612150565b61194e565b60405161031b91906124af565b60405180910390f35b61033e60048036038101906103399190612150565b611966565b60405161034b91906124af565b60405180910390f35b61036e6004803603810190610369919061230e565b61197e565b60405161037b919061234e565b60405180910390f35b61039e60048036038101906103999190612150565b611a2b565b6040516103ab91906124af565b60405180910390f35b6103bc611a43565b6040516103c991906124af565b60405180910390f35b6103ec60048036038101906103e79190612466565b611a8d565b005b61040860048036038101906104039190612150565b611b89565b60405161041c989796959493929190612248565b60405180910390f35b60001515600460003373ffffffffffffffffffffffffffffffffffffffff1673ffffffffffffffffffffffffffffffffffffffff16815260200190815260200160002060070160009054906101000a900460ff161515146104bb576040517f08c379a00000000000000000000000000000000000000000000000000000000081526004016104b2906126aa565b60405180910390fd5b600a60008154809291906104ce906126f9565b91905055506040518061010001604052803373ffffffffffffffffffffffffffffffffffffffff168152602001858152602001848152602001838152602001828152602001600081526020016000815260200160011515815250600460003373ffffffffffffffffffffffffffffffffffffffff1673ffffffffffffffffffffffffffffffffffffffff16815260200190815260200160002060008201518160000160006101000a81548173ffffffffffffffffffffffffffffffffffffffff021916908373ffffffffffffffffffffffffffffffffffffffff16021790555060208201518160010190805190602001906105ca929190611e1e565b5060408201518160020190805190602001906105e7929190611e1e565b506060820151816003019080519060200190610604929190611e1e565b506080820151816004019080519060200190610621929190611e1e565b5060a0820151816005015560c0820151816006015560e08201518160070160006101000a81548160ff0219169083151502179055509050506040518061010001604052803373ffffffffffffffffffffffffffffffffffffffff168152602001858152602001848152602001838152602001828152602001600081526020016000815260200160011515815250600560003373ffffffffffffffffffffffffffffffffffffffff1673ffffffffffffffffffffffffffffffffffffffff16815260200190815260200160002060008201518160000160006101000a81548173ffffffffffffffffffffffffffffffffffffffff021916908373ffffffffffffffffffffffffffffffffffffffff1602179055506020820151816001019080519060200190610750929190611e1e565b50604082015181600201908051906020019061076d929190611e1e565b50606082015181600301908051906020019061078a929190611e1e565b5060808201518160040190805190602001906107a7929190611e1e565b5060a0820151816005015560c0820151816006015560e08201518160070160006101000a81548160ff02191690831515021790555090505050505050565b60056020528060005260406000206000915090508060000160009054906101000a900473ffffffffffffffffffffffffffffffffffffffff169080600101805461082e90612771565b80601f016020809104026020016040519081016040528092919081815260200182805461085a90612771565b80156108a75780601f1061087c576101008083540402835291602001916108a7565b820191906000526020600020905b81548152906001019060200180831161088a57829003601f168201915b5050505050908060020180546108bc90612771565b80601f01602080910402602001604051908101604052809291908181526020018280546108e890612771565b80156109355780601f1061090a57610100808354040283529160200191610935565b820191906000526020600020905b81548152906001019060200180831161091857829003601f168201915b50505050509080600301805461094a90612771565b80601f016020809104026020016040519081016040528092919081815260200182805461097690612771565b80156109c35780601f10610998576101008083540402835291602001916109c3565b820191906000526020600020905b8154815290600101906020018083116109a657829003601f168201915b5050505050908060040180546109d890612771565b80601f0160208091040260200160405190810160405280929190818152602001828054610a0490612771565b8015610a515780601f10610a2657610100808354040283529160200191610a51565b820191906000526020600020905b815481529060010190602001808311610a3457829003601f168201915b5050505050908060050154908060060154908060070160009054906101000a900460ff16905088565b6001602052816000526040600020602052806000526040600020600091509150508054610aa690612771565b80601f0160208091040260200160405190810160405280929190818152602001828054610ad290612771565b8015610b1f5780601f10610af457610100808354040283529160200191610b1f565b820191906000526020600020905b815481529060010190602001808311610b0257829003601f168201915b505050505081565b60006020528160005260406000208180516020810182018051848252602083016020850120818352809550505050505060009150915050806000018054610b6d90612771565b80601f0160208091040260200160405190810160405280929190818152602001828054610b9990612771565b8015610be65780601f10610bbb57610100808354040283529160200191610be6565b820191906000526020600020905b815481529060010190602001808311610bc957829003601f168201915b505050505090806001015490806002015490806003015490806004018054610c0d90612771565b80601f0160208091040260200160405190810160405280929190818152602001828054610c3990612771565b8015610c865780601f10610c5b57610100808354040283529160200191610c86565b820191906000526020600020905b815481529060010190602001808311610c6957829003601f168201915b505050505090806005018054610c9b90612771565b80601f0160208091040260200160405190810160405280929190818152602001828054610cc790612771565b8015610d145780601f10610ce957610100808354040283529160200191610d14565b820191906000526020600020905b815481529060010190602001808311610cf757829003601f168201915b505050505090806006018054610d2990612771565b80601f0160208091040260200160405190810160405280929190818152602001828054610d5590612771565b8015610da25780601f10610d7757610100808354040283529160200191610da2565b820191906000526020600020905b815481529060010190602001808311610d8557829003601f168201915b5050505050908060070160009054906101000a900460ff16905088565b6006602052816000526040600020602052806000526040600020600091509150508054610deb90612771565b80601f0160208091040260200160405190810160405280929190818152602001828054610e1790612771565b8015610e645780601f10610e3957610100808354040283529160200191610e64565b820191906000526020600020905b815481529060010190602001808311610e4757829003601f168201915b505050505081565b600960003373ffffffffffffffffffffffffffffffffffffffff1673ffffffffffffffffffffffffffffffffffffffff1681526020019081526020016000206000815480929190610ebc906126f9565b919050555080600860003373ffffffffffffffffffffffffffffffffffffffff1673ffffffffffffffffffffffffffffffffffffffff1681526020019081526020016000206000600960003373ffffffffffffffffffffffffffffffffffffffff1673ffffffffffffffffffffffffffffffffffffffff1681526020019081526020016000205481526020019081526020016000209080519060200190610f64929190611e1e565b5050565b6000600260003373ffffffffffffffffffffffffffffffffffffffff1673ffffffffffffffffffffffffffffffffffffffff16815260200190815260200160002054905090565b60008411610ff2576040517f08c379a0000000000000000000000000000000000000000000000000000000008152600401610fe990612815565b60405180910390fd5b600260003373ffffffffffffffffffffffffffffffffffffffff1673ffffffffffffffffffffffffffffffffffffffff1681526020019081526020016000206000815480929190611042906126f9565b919050555060405180610100016040528088815260200187815260200186815260200185815260200184815260200183815260200182815260200160011515815250600360003373ffffffffffffffffffffffffffffffffffffffff1673ffffffffffffffffffffffffffffffffffffffff1681526020019081526020016000206000600260003373ffffffffffffffffffffffffffffffffffffffff1673ffffffffffffffffffffffffffffffffffffffff168152602001908152602001600020548152602001908152602001600020600082015181600001908051906020019061112f929190611e1e565b50602082015181600101556040820151816002015560608201518160030155608082015181600401908051906020019061116a929190611e1e565b5060a0820151816005019080519060200190611187929190611e1e565b5060c08201518160060190805190602001906111a4929190611e1e565b5060e08201518160070160006101000a81548160ff02191690831515021790555090505082600160003373ffffffffffffffffffffffffffffffffffffffff1673ffffffffffffffffffffffffffffffffffffffff1681526020019081526020016000206000600260003373ffffffffffffffffffffffffffffffffffffffff1673ffffffffffffffffffffffffffffffffffffffff168152602001908152602001600020548152602001908152602001600020908051906020019061126b929190611e1e565b50604051806101000160405280888152602001878152602001868152602001858152602001848152602001838152602001828152602001600115158152506000803373ffffffffffffffffffffffffffffffffffffffff1673ffffffffffffffffffffffffffffffffffffffff168152602001908152602001600020846040516112f59190612871565b9081526020016040518091039020600082015181600001908051906020019061131f929190611e1e565b50602082015181600101556040820151816002015560608201518160030155608082015181600401908051906020019061135a929190611e1e565b5060a0820151816005019080519060200190611377929190611e1e565b5060c0820151816006019080519060200190611394929190611e1e565b5060e08201518160070160006101000a81548160ff021916908315150217905550905050600460003373ffffffffffffffffffffffffffffffffffffffff1673ffffffffffffffffffffffffffffffffffffffff168152602001908152602001600020600501600081548092919061140b906126f9565b9190505550600560003373ffffffffffffffffffffffffffffffffffffffff1673ffffffffffffffffffffffffffffffffffffffff1681526020019081526020016000206005016000815480929190611463906126f9565b919050555050505050505050565b6000600560003373ffffffffffffffffffffffffffffffffffffffff1673ffffffffffffffffffffffffffffffffffffffff16815260200190815260200160002060060154905090565b600a5481565b6003602052816000526040600020602052806000526040600020600091509150508060000180546114f190612771565b80601f016020809104026020016040519081016040528092919081815260200182805461151d90612771565b801561156a5780601f1061153f5761010080835404028352916020019161156a565b820191906000526020600020905b81548152906001019060200180831161154d57829003601f168201915b50505050509080600101549080600201549080600301549080600401805461159190612771565b80601f01602080910402602001604051908101604052809291908181526020018280546115bd90612771565b801561160a5780601f106115df5761010080835404028352916020019161160a565b820191906000526020600020905b8154815290600101906020018083116115ed57829003601f168201915b50505050509080600501805461161f90612771565b80601f016020809104026020016040519081016040528092919081815260200182805461164b90612771565b80156116985780601f1061166d57610100808354040283529160200191611698565b820191906000526020600020905b81548152906001019060200180831161167b57829003601f168201915b5050505050908060060180546116ad90612771565b80601f01602080910402602001604051908101604052809291908181526020018280546116d990612771565b80156117265780601f106116fb57610100808354040283529160200191611726565b820191906000526020600020905b81548152906001019060200180831161170957829003601f168201915b5050505050908060070160009054906101000a900460ff16905088565b60008060003373ffffffffffffffffffffffffffffffffffffffff1673ffffffffffffffffffffffffffffffffffffffff168152602001908152602001600020826040516117919190612871565b908152602001604051809103902060030154116117e3576040517f08c379a00000000000000000000000000000000000000000000000000000000081526004016117da906128d4565b60405180910390fd5b60008211611826576040517f08c379a000000000000000000000000000000000000000000000000000000000815260040161181d90612815565b60405180910390fd5b816000803373ffffffffffffffffffffffffffffffffffffffff1673ffffffffffffffffffffffffffffffffffffffff168152602001908152602001600020826040516118739190612871565b9081526020016040518091039020600301600082825461189391906128f4565b92505081905550600460003373ffffffffffffffffffffffffffffffffffffffff1673ffffffffffffffffffffffffffffffffffffffff16815260200190815260200160002060060160008154809291906118ed906126f9565b9190505550600560003373ffffffffffffffffffffffffffffffffffffffff1673ffffffffffffffffffffffffffffffffffffffff1681526020019081526020016000206006016000815480929190611945906126f9565b91905055505050565b60076020528060005260406000206000915090505481565b60026020528060005260406000206000915090505481565b60086020528160005260406000206020528060005260406000206000915091505080546119aa90612771565b80601f01602080910402602001604051908101604052809291908181526020018280546119d690612771565b8015611a235780601f106119f857610100808354040283529160200191611a23565b820191906000526020600020905b815481529060010190602001808311611a0657829003601f168201915b505050505081565b60096020528060005260406000206000915090505481565b6000600560003373ffffffffffffffffffffffffffffffffffffffff1673ffffffffffffffffffffffffffffffffffffffff16815260200190815260200160002060050154905090565b600760003373ffffffffffffffffffffffffffffffffffffffff1673ffffffffffffffffffffffffffffffffffffffff1681526020019081526020016000206000815480929190611add906126f9565b919050555080600660003373ffffffffffffffffffffffffffffffffffffffff1673ffffffffffffffffffffffffffffffffffffffff1681526020019081526020016000206000600760003373ffffffffffffffffffffffffffffffffffffffff1673ffffffffffffffffffffffffffffffffffffffff1681526020019081526020016000205481526020019081526020016000209080519060200190611b85929190611e1e565b5050565b60046020528060005260406000206000915090508060000160009054906101000a900473ffffffffffffffffffffffffffffffffffffffff1690806001018054611bd290612771565b80601f0160208091040260200160405190810160405280929190818152602001828054611bfe90612771565b8015611c4b5780601f10611c2057610100808354040283529160200191611c4b565b820191906000526020600020905b815481529060010190602001808311611c2e57829003601f168201915b505050505090806002018054611c6090612771565b80601f0160208091040260200160405190810160405280929190818152602001828054611c8c90612771565b8015611cd95780601f10611cae57610100808354040283529160200191611cd9565b820191906000526020600020905b815481529060010190602001808311611cbc57829003601f168201915b505050505090806003018054611cee90612771565b80601f0160208091040260200160405190810160405280929190818152602001828054611d1a90612771565b8015611d675780601f10611d3c57610100808354040283529160200191611d67565b820191906000526020600020905b815481529060010190602001808311611d4a57829003601f168201915b505050505090806004018054611d7c90612771565b80601f0160208091040260200160405190810160405280929190818152602001828054611da890612771565b8015611df55780601f10611dca57610100808354040283529160200191611df5565b820191906000526020600020905b815481529060010190602001808311611dd857829003601f168201915b5050505050908060050154908060060154908060070160009054906101000a900460ff16905088565b828054611e2a90612771565b90600052602060002090601f016020900481019282611e4c5760008555611e93565b82601f10611e6557805160ff1916838001178555611e93565b82800160010185558215611e93579182015b82811115611e92578251825591602001919060010190611e77565b5b509050611ea09190611ea4565b5090565b5b80821115611ebd576000816000905550600101611ea5565b5090565b6000604051905090565b600080fd5b600080fd5b600080fd5b600080fd5b6000601f19601f8301169050919050565b7f4e487b7100000000000000000000000000000000000000000000000000000000600052604160045260246000fd5b611f2882611edf565b810181811067ffffffffffffffff82111715611f4757611f46611ef0565b5b80604052505050565b6000611f5a611ec1565b9050611f668282611f1f565b919050565b600067ffffffffffffffff821115611f8657611f85611ef0565b5b611f8f82611edf565b9050602081019050919050565b82818337600083830152505050565b6000611fbe611fb984611f6b565b611f50565b905082815260208101848484011115611fda57611fd9611eda565b5b611fe5848285611f9c565b509392505050565b600082601f83011261200257612001611ed5565b5b8135612012848260208601611fab565b91505092915050565b6000806000806080858703121561203557612034611ecb565b5b600085013567ffffffffffffffff81111561205357612052611ed0565b5b61205f87828801611fed565b945050602085013567ffffffffffffffff8111156120805761207f611ed0565b5b61208c87828801611fed565b935050604085013567ffffffffffffffff8111156120ad576120ac611ed0565b5b6120b987828801611fed565b925050606085013567ffffffffffffffff8111156120da576120d9611ed0565b5b6120e687828801611fed565b91505092959194509250565b600073ffffffffffffffffffffffffffffffffffffffff82169050919050565b600061211d826120f2565b9050919050565b61212d81612112565b811461213857600080fd5b50565b60008135905061214a81612124565b92915050565b60006020828403121561216657612165611ecb565b5b60006121748482850161213b565b91505092915050565b61218681612112565b82525050565b600081519050919050565b600082825260208201905092915050565b60005b838110156121c65780820151818401526020810190506121ab565b838111156121d5576000848401525b50505050565b60006121e68261218c565b6121f08185612197565b93506122008185602086016121a8565b61220981611edf565b840191505092915050565b6000819050919050565b61222781612214565b82525050565b60008115159050919050565b6122428161222d565b82525050565b60006101008201905061225e600083018b61217d565b8181036020830152612270818a6121db565b9050818103604083015261228481896121db565b9050818103606083015261229881886121db565b905081810360808301526122ac81876121db565b90506122bb60a083018661221e565b6122c860c083018561221e565b6122d560e0830184612239565b9998505050505050505050565b6122eb81612214565b81146122f657600080fd5b50565b600081359050612308816122e2565b92915050565b6000806040838503121561232557612324611ecb565b5b60006123338582860161213b565b9250506020612344858286016122f9565b9150509250929050565b6000602082019050818103600083015261236881846121db565b905092915050565b6000806040838503121561238757612386611ecb565b5b60006123958582860161213b565b925050602083013567ffffffffffffffff8111156123b6576123b5611ed0565b5b6123c285828601611fed565b9150509250929050565b60006101008201905081810360008301526123e7818b6121db565b90506123f6602083018a61221e565b612403604083018961221e565b612410606083018861221e565b818103608083015261242281876121db565b905081810360a083015261243681866121db565b905081810360c083015261244a81856121db565b905061245960e0830184612239565b9998505050505050505050565b60006020828403121561247c5761247b611ecb565b5b600082013567ffffffffffffffff81111561249a57612499611ed0565b5b6124a684828501611fed565b91505092915050565b60006020820190506124c4600083018461221e565b92915050565b600080600080600080600060e0888a0312156124e9576124e8611ecb565b5b600088013567ffffffffffffffff81111561250757612506611ed0565b5b6125138a828b01611fed565b97505060206125248a828b016122f9565b96505060406125358a828b016122f9565b95505060606125468a828b016122f9565b945050608088013567ffffffffffffffff81111561256757612566611ed0565b5b6125738a828b01611fed565b93505060a088013567ffffffffffffffff81111561259457612593611ed0565b5b6125a08a828b01611fed565b92505060c088013567ffffffffffffffff8111156125c1576125c0611ed0565b5b6125cd8a828b01611fed565b91505092959891949750929550565b600080604083850312156125f3576125f2611ecb565b5b6000612601858286016122f9565b925050602083013567ffffffffffffffff81111561262257612621611ed0565b5b61262e85828601611fed565b9150509250929050565b7f4d65646963616c2073746f7265206e616d6520616c726561647920657869737460008201527f7300000000000000000000000000000000000000000000000000000000000000602082015250565b6000612694602183612197565b915061269f82612638565b604082019050919050565b600060208201905081810360008301526126c381612687565b9050919050565b7f4e487b7100000000000000000000000000000000000000000000000000000000600052601160045260246000fd5b600061270482612214565b91507fffffffffffffffffffffffffffffffffffffffffffffffffffffffffffffffff821415612737576127366126ca565b5b600182019050919050565b7f4e487b7100000000000000000000000000000000000000000000000000000000600052602260045260246000fd5b6000600282049050600182168061278957607f821691505b6020821081141561279d5761279c612742565b5b50919050565b7f5175616e746974792073686f756c642062652067726561746572207468616e2060008201527f3000000000000000000000000000000000000000000000000000000000000000602082015250565b60006127ff602183612197565b915061280a826127a3565b604082019050919050565b6000602082019050818103600083015261282e816127f2565b9050919050565b600081905092915050565b600061284b8261218c565b6128558185612835565b93506128658185602086016121a8565b80840191505092915050565b600061287d8284612840565b915081905092915050565b7f496e73756666696369656e742073746f636b0000000000000000000000000000600082015250565b60006128be601283612197565b91506128c982612888565b602082019050919050565b600060208201905081810360008301526128ed816128b1565b9050919050565b60006128ff82612214565b915061290a83612214565b92508282101561291d5761291c6126ca565b5b82820390509291505056fea2646970667358221220f0663e988f281b0766593f7fd860187e017e660742bdb8cfa154dd1a00648e5b64736f6c634300080a0033",
  "immutableReferences": {},
  "source": "// SPDX-License-Identifier: MIT\npragma solidity >=0.4.22 <0.9.0;\n\ncontract MedStore {\n    \n    struct MedicalStore {\n        address owner;\n        string ownerName;\n        string storeName;\n        string pno;\n        string ownerAddress;\n        uint256 invoices;\n        uint256 purchases;\n        bool exists;\n    }\n    \n    struct Medicine {\n        string name;\n        uint256 rate;\n        uint256 price;\n        uint256 quantity;\n        string bno;\n        string manufactDate;\n        string expiryDate;\n        bool exists;\n    }\n    \n\n    mapping(address => mapping(string => Medicine)) public medicines;\n \n    mapping(address => mapping(uint256 => string)) public batchIdOfMedicine;\n    \n    mapping(address => uint256) public medicineCountInMedicalStore;\n\n    mapping(address => mapping(uint256 => Medicine)) public myMedicines;\n\n    mapping(address => MedicalStore) public medicalStores;\n\n    mapping(address => MedicalStore) public myMedicalStores;\n\n    mapping(address => mapping(uint256 => string)) public myBills;\n\n    mapping(address => uint256) public myBillsCount;\n\n    mapping(address => mapping(uint256 => string)) public myInvoices;\n\n    mapping(address => uint256) public myInvoicesCount;\n\n    uint256 public medicalStoresCount;\n\n    // function to add new medical store\n    function addMedicalStore(string memory _ownerName, string memory _medicalStoreName, string memory _pno, string memory _ownerAddress) public {\n        require(medicalStores[msg.sender].exists == false, \"Medical store name already exists\");\n        \n        medicalStoresCount++;\n        medicalStores[msg.sender] = MedicalStore(msg.sender, _ownerName, _medicalStoreName, _pno, _ownerAddress, 0, 0, true);\n        myMedicalStores[msg.sender] = MedicalStore(msg.sender, _ownerName, _medicalStoreName, _pno, _ownerAddress, 0, 0, true);\n    }\n\n    // function to add new stock of a specific medicine having a particular expiry date to a particular medical store\n    function addMedicine( string memory _medicineName, uint256 _rate, uint256 _price, uint256 _quantity, string memory _bno, string memory _manufactDate, string memory _expiryDate) public {\n        require(_quantity > 0, \"Quantity should be greater than 0\");\n        medicineCountInMedicalStore[msg.sender]++;\n        myMedicines[msg.sender][medicineCountInMedicalStore[msg.sender]] = Medicine(_medicineName, _rate, _price, _quantity, _bno, _manufactDate, _expiryDate, true);\n        batchIdOfMedicine[msg.sender][ medicineCountInMedicalStore[msg.sender]] = _bno;\n        medicines[msg.sender][_bno] = Medicine(_medicineName, _rate, _price, _quantity, _bno, _manufactDate, _expiryDate, true);\n\n        medicalStores[msg.sender].invoices++;\n        myMedicalStores[msg.sender].invoices++;\n    }\n\n    function purchaseMedicine( uint256 _quantity, string memory _bno) public {\n        require(medicines[msg.sender][_bno].quantity > 0, \"Insufficient stock\");\n        require(_quantity > 0, \"Quantity should be greater than 0\");\n        \n        medicines[msg.sender][_bno].quantity -= _quantity;\n        medicalStores[msg.sender].purchases++;\n        myMedicalStores[msg.sender].purchases++;\n    }\n\n    function addBills(string memory _billHash) public {\n        myBillsCount[msg.sender]++;\n        myBills[msg.sender][myBillsCount[msg.sender]] = _billHash;\n    }\n\n    function addInvoices(string memory _invoiceHash) public {\n        myInvoicesCount[msg.sender]++;\n        myInvoices[msg.sender][myInvoicesCount[msg.sender]] = _invoiceHash;\n    }\n \n    function medicineCount() view public returns(uint256){\n        return medicineCountInMedicalStore[msg.sender];\n    }\n\n    function invoicesCount() view public returns(uint256){\n        return myMedicalStores[msg.sender].invoices;\n    }\n    function purchasesCount() view public returns(uint256){\n        return myMedicalStores[msg.sender].purchases;\n    }\n    \n}",
  "sourcePath": "/Users/om/Desktop/Hackathon/contracts/invoice.sol",
  "compiler": {
    "name": "solc",
    "version": "0.8.10+commit.fc410830.Emscripten.clang"
  },
  "schemaVersion": "3.4.4",
  "updatedAt": "2022-01-08T12:16:36.481Z",
  "networkType": "ethereum",
  "devdoc": {
    "kind": "dev",
    "methods": {},
    "version": 1
  },
  "userdoc": {
    "kind": "user",
    "methods": {},
    "version": 1
  }
}